{
  "contractName": "Blog",
  "abi": [
    {
      "inputs": [],
      "stateMutability": "nonpayable",
      "type": "constructor"
    },
    {
      "anonymous": false,
      "inputs": [
        {
          "indexed": false,
          "internalType": "uint256",
          "name": "blog_id",
          "type": "uint256"
        },
        {
          "indexed": false,
          "internalType": "uint256",
          "name": "add_time",
          "type": "uint256"
        }
      ],
      "name": "addBlog_event",
      "type": "event"
    },
    {
      "anonymous": false,
      "inputs": [
        {
          "indexed": false,
          "internalType": "bytes32",
          "name": "hash",
          "type": "bytes32"
        },
        {
          "indexed": false,
          "internalType": "uint256",
          "name": "userId",
          "type": "uint256"
        }
      ],
      "name": "creatUser",
      "type": "event"
    },
    {
      "inputs": [],
      "name": "s",
      "outputs": [
        {
          "internalType": "string",
          "name": "",
          "type": "string"
        }
      ],
      "stateMutability": "view",
      "type": "function",
      "constant": true
    },
    {
      "inputs": [
        {
          "internalType": "string",
          "name": "mainMsg",
          "type": "string"
        },
        {
          "internalType": "string",
          "name": "userName",
          "type": "string"
        }
      ],
      "name": "register",
      "outputs": [
        {
          "internalType": "bytes32",
          "name": "",
          "type": "bytes32"
        },
        {
          "internalType": "uint256",
          "name": "",
          "type": "uint256"
        }
      ],
      "stateMutability": "payable",
      "type": "function",
      "payable": true
    },
    {
      "inputs": [
        {
          "internalType": "uint256",
          "name": "userId",
          "type": "uint256"
        }
      ],
      "name": "vfUser",
      "outputs": [
        {
          "internalType": "bytes32",
          "name": "",
          "type": "bytes32"
        }
      ],
      "stateMutability": "payable",
      "type": "function",
      "payable": true
    },
    {
      "inputs": [
        {
          "internalType": "bytes32",
          "name": "hash",
          "type": "bytes32"
        },
        {
          "internalType": "string",
          "name": "title",
          "type": "string"
        }
      ],
      "name": "addBlog",
      "outputs": [],
      "stateMutability": "payable",
      "type": "function",
      "payable": true
    },
    {
      "inputs": [],
      "name": "login",
      "outputs": [
        {
          "internalType": "uint256",
          "name": "",
          "type": "uint256"
        }
      ],
      "stateMutability": "payable",
      "type": "function",
      "payable": true
    }
  ],
  "bytecode": "0x608060405234801561001057600080fd5b5060008081905550610d52806100276000396000f3fe60806040526004361061004a5760003560e01c80633ffbd47f1461004f57806361a3abb11461008057806380d0ade51461009c57806386b714e2146100cc578063b34e97e8146100f7575b600080fd5b610069600480360381019061006491906107bb565b610115565b604051610077929190610865565b60405180910390f35b61009a600480360381019061009591906108ba565b610337565b005b6100b660048036038101906100b19190610942565b610467565b6040516100c3919061096f565b60405180910390f35b3480156100d857600080fd5b506100e16104e6565b6040516100ee9190610a12565b60405180910390f35b6100ff610574565b60405161010c9190610a34565b60405180910390f35b6000806000620f42404442604051602001610131929190610a70565b6040516020818303038152906040528051906020012060001c6101549190610acb565b90505b60006004600083815260200190815260200160002080549050146101b657620f4240444260405160200161018c929190610a70565b6040516020818303038152906040528051906020012060001c6101af9190610acb565b9050610157565b600060028286886040516020016101cf93929190610b38565b6040516020818303038152906040526040516101eb9190610bb4565b602060405180830381855afa158015610208573d6000803e3d6000fd5b5050506040513d601f19601f8201168201806040525081019061022b9190610be0565b90507fd50258d5142a1379afba6c9713eb28b550dfa24f16498bced5cecc635128cd30818360405161025e929190610865565b60405180910390a16040518060800160405280838152602001868152602001600063ffffffff16815260200182815250600360003373ffffffffffffffffffffffffffffffffffffffff1673ffffffffffffffffffffffffffffffffffffffff1681526020019081526020016000206000820151816000015560208201518160010190805190602001906102f39291906105be565b5060408201518160020160006101000a81548163ffffffff021916908363ffffffff1602179055506060820151816003015590505080829350935050509250929050565b6000600360003373ffffffffffffffffffffffffffffffffffffffff1673ffffffffffffffffffffffffffffffffffffffff1681526020019081526020016000206000015490506040518060c00160405280600054815260200183815260200184815260200182815260200142815260200142815250600560008381526020019081526020016000206000820151816000015560208201518160010190805190602001906103e69291906105be565b5060408201518160020155606082015181600301556080820151816004015560a082015181600501559050507fbb37129c395b5eb34abd1c2bb59a4aca7e65803d2bd4c9961b53d1e3835af78660005442604051610445929190610c0d565b60405180910390a1600160005461045c9190610c65565b600081905550505050565b6000600360006002600085815260200190815260200160002060009054906101000a900473ffffffffffffffffffffffffffffffffffffffff1673ffffffffffffffffffffffffffffffffffffffff1673ffffffffffffffffffffffffffffffffffffffff168152602001908152602001600020600301549050919050565b600180546104f390610cea565b80601f016020809104026020016040519081016040528092919081815260200182805461051f90610cea565b801561056c5780601f106105415761010080835404028352916020019161056c565b820191906000526020600020905b81548152906001019060200180831161054f57829003601f168201915b505050505081565b6000600360003373ffffffffffffffffffffffffffffffffffffffff1673ffffffffffffffffffffffffffffffffffffffff16815260200190815260200160002060000154905090565b8280546105ca90610cea565b90600052602060002090601f0160209004810192826105ec5760008555610633565b82601f1061060557805160ff1916838001178555610633565b82800160010185558215610633579182015b82811115610632578251825591602001919060010190610617565b5b5090506106409190610644565b5090565b5b8082111561065d576000816000905550600101610645565b5090565b6000604051905090565b600080fd5b600080fd5b600080fd5b600080fd5b6000601f19601f8301169050919050565b7f4e487b7100000000000000000000000000000000000000000000000000000000600052604160045260246000fd5b6106c88261067f565b810181811067ffffffffffffffff821117156106e7576106e6610690565b5b80604052505050565b60006106fa610661565b905061070682826106bf565b919050565b600067ffffffffffffffff82111561072657610725610690565b5b61072f8261067f565b9050602081019050919050565b82818337600083830152505050565b600061075e6107598461070b565b6106f0565b90508281526020810184848401111561077a5761077961067a565b5b61078584828561073c565b509392505050565b600082601f8301126107a2576107a1610675565b5b81356107b284826020860161074b565b91505092915050565b600080604083850312156107d2576107d161066b565b5b600083013567ffffffffffffffff8111156107f0576107ef610670565b5b6107fc8582860161078d565b925050602083013567ffffffffffffffff81111561081d5761081c610670565b5b6108298582860161078d565b9150509250929050565b6000819050919050565b61084681610833565b82525050565b6000819050919050565b61085f8161084c565b82525050565b600060408201905061087a600083018561083d565b6108876020830184610856565b9392505050565b61089781610833565b81146108a257600080fd5b50565b6000813590506108b48161088e565b92915050565b600080604083850312156108d1576108d061066b565b5b60006108df858286016108a5565b925050602083013567ffffffffffffffff811115610900576108ff610670565b5b61090c8582860161078d565b9150509250929050565b61091f8161084c565b811461092a57600080fd5b50565b60008135905061093c81610916565b92915050565b6000602082840312156109585761095761066b565b5b60006109668482850161092d565b91505092915050565b6000602082019050610984600083018461083d565b92915050565b600081519050919050565b600082825260208201905092915050565b60005b838110156109c45780820151818401526020810190506109a9565b838111156109d3576000848401525b50505050565b60006109e48261098a565b6109ee8185610995565b93506109fe8185602086016109a6565b610a078161067f565b840191505092915050565b60006020820190508181036000830152610a2c81846109d9565b905092915050565b6000602082019050610a496000830184610856565b92915050565b6000819050919050565b610a6a610a658261084c565b610a4f565b82525050565b6000610a7c8285610a59565b602082019150610a8c8284610a59565b6020820191508190509392505050565b7f4e487b7100000000000000000000000000000000000000000000000000000000600052601260045260246000fd5b6000610ad68261084c565b9150610ae18361084c565b925082610af157610af0610a9c565b5b828206905092915050565b600081905092915050565b6000610b128261098a565b610b1c8185610afc565b9350610b2c8185602086016109a6565b80840191505092915050565b6000610b448286610a59565b602082019150610b548285610b07565b9150610b608284610b07565b9150819050949350505050565b600081519050919050565b600081905092915050565b6000610b8e82610b6d565b610b988185610b78565b9350610ba88185602086016109a6565b80840191505092915050565b6000610bc08284610b83565b915081905092915050565b600081519050610bda8161088e565b92915050565b600060208284031215610bf657610bf561066b565b5b6000610c0484828501610bcb565b91505092915050565b6000604082019050610c226000830185610856565b610c2f6020830184610856565b9392505050565b7f4e487b7100000000000000000000000000000000000000000000000000000000600052601160045260246000fd5b6000610c708261084c565b9150610c7b8361084c565b9250827fffffffffffffffffffffffffffffffffffffffffffffffffffffffffffffffff03821115610cb057610caf610c36565b5b828201905092915050565b7f4e487b7100000000000000000000000000000000000000000000000000000000600052602260045260246000fd5b60006002820490506001821680610d0257607f821691505b60208210811415610d1657610d15610cbb565b5b5091905056fea2646970667358221220dafd21c79a6307778075fc6e6961be23e5a262fc12ae1fd03af4b6c7206c282e64736f6c634300080a0033",
  "immutableReferences": {},
  "source": "// SPDX-License-Identifier: GPL-3.0\npragma solidity ^0.8.10;\n\n\ncontract Blog {\n    event creatUser(bytes32 hash,uint256 userId);\n    event addBlog_event(uint256 blog_id,uint256 add_time);\n    uint256 blog_id;\n    string public s;\n    struct userStruct{\n        uint256 userId;\n        string userName;\n        uint32 blogSum;\n        bytes32 hash;\n\n    }\n    struct blogStruct{\n        uint256 blog_id;\n        string title;\n        bytes32 hash;\n        uint256 userId;\n        uint256 add_time;\n        uint256 modify_time;\n\n    }\n    mapping(uint256=>address) userIdMap;\n    mapping(address=>userStruct)  userMap;\n    mapping(uint256=>uint256[]) userBlogs;\n    mapping(uint256=>blogStruct) blogMap;\n    constructor() {\n        blog_id=0;\n    }\n    function register(string memory mainMsg,string memory userName) public  payable returns(bytes32,uint256) {\n\n        uint256  userId = uint256(keccak256(abi.encodePacked(block.difficulty, block.timestamp)))%1000000;\n        while(userBlogs[userId].length!=0){\n            userId = uint256(keccak256(abi.encodePacked(block.difficulty,  block.timestamp)))%1000000;\n        }\n        bytes32  hash=sha256(abi.encodePacked(userId,userName,mainMsg));\n        emit creatUser(hash,userId);\n        userMap[msg.sender]=userStruct(userId,userName,0,hash);\n        return (hash,userId);\n    }\n    function vfUser(uint256  userId) public payable returns(bytes32){\n        return userMap[userIdMap[userId]].hash;\n    }\n    function addBlog(bytes32 hash,string memory title)public payable{\n        uint256 userid=userMap[msg.sender].userId;\n        blogMap[userid]=blogStruct(blog_id,title,hash,userid,block.timestamp,block.timestamp);\n        emit addBlog_event(blog_id,block.timestamp);\n        blog_id=blog_id+1;\n\n    }\n    function login()public payable returns (uint256){\n        return userMap[msg.sender].userId;\n    }\n}\n",
  "sourcePath": "/home/aptx/code/WebstormProjects/untitled7/contracts/Blog.sol",
  "compiler": {
    "name": "solc",
    "version": "0.8.10+commit.fc410830.Emscripten.clang"
  },
  "schemaVersion": "3.4.3",
  "updatedAt": "2021-12-17T13:03:27.762Z",
  "networkType": "ethereum",
  "devdoc": {
    "kind": "dev",
    "methods": {},
    "version": 1
  },
  "userdoc": {
    "kind": "user",
    "methods": {},
    "version": 1
  }
}