{
  "contractName": "Blog",
  "abi": [
    {
      "inputs": [],
      "stateMutability": "nonpayable",
      "type": "constructor"
    },
    {
      "anonymous": false,
      "inputs": [
        {
          "indexed": false,
          "internalType": "uint256",
          "name": "blog_id",
          "type": "uint256"
        },
        {
          "indexed": false,
          "internalType": "uint256",
          "name": "add_time",
          "type": "uint256"
        }
      ],
      "name": "addBlog_event",
      "type": "event"
    },
    {
      "anonymous": false,
      "inputs": [
        {
          "indexed": false,
          "internalType": "bytes32",
          "name": "hash",
          "type": "bytes32"
        },
        {
          "indexed": false,
          "internalType": "uint256",
          "name": "userId",
          "type": "uint256"
        }
      ],
      "name": "creatUser",
      "type": "event"
    },
    {
      "inputs": [],
      "name": "s",
      "outputs": [
        {
          "internalType": "string",
          "name": "",
          "type": "string"
        }
      ],
      "stateMutability": "view",
      "type": "function",
      "constant": true
    },
    {
      "inputs": [
        {
          "internalType": "string",
          "name": "mainMsg",
          "type": "string"
        },
        {
          "internalType": "string",
          "name": "userName",
          "type": "string"
        }
      ],
      "name": "register",
      "outputs": [
        {
          "internalType": "bytes32",
          "name": "",
          "type": "bytes32"
        },
        {
          "internalType": "uint256",
          "name": "",
          "type": "uint256"
        }
      ],
      "stateMutability": "payable",
      "type": "function",
      "payable": true
    },
    {
      "inputs": [
        {
          "internalType": "uint256",
          "name": "userId",
          "type": "uint256"
        }
      ],
      "name": "vfUser",
      "outputs": [
        {
          "internalType": "bytes32",
          "name": "",
          "type": "bytes32"
        }
      ],
      "stateMutability": "payable",
      "type": "function",
      "payable": true
    },
    {
      "inputs": [
        {
          "internalType": "bytes32",
          "name": "hash",
          "type": "bytes32"
        },
        {
          "internalType": "string",
          "name": "title",
          "type": "string"
        }
      ],
      "name": "addBlog",
      "outputs": [],
      "stateMutability": "payable",
      "type": "function",
      "payable": true
    }
  ],
  "bytecode": "0x608060405234801561001057600080fd5b5060008081905550610cc4806100276000396000f3fe60806040526004361061003f5760003560e01c80633ffbd47f1461004457806361a3abb11461007557806380d0ade51461009157806386b714e2146100c1575b600080fd5b61005e60048036038101906100599190610748565b6100ec565b60405161006c9291906107f2565b60405180910390f35b61008f600480360381019061008a9190610847565b61030e565b005b6100ab60048036038101906100a691906108cf565b61043e565b6040516100b891906108fc565b60405180910390f35b3480156100cd57600080fd5b506100d66104bd565b6040516100e3919061099f565b60405180910390f35b6000806000620f424044426040516020016101089291906109e2565b6040516020818303038152906040528051906020012060001c61012b9190610a3d565b90505b600060046000838152602001908152602001600020805490501461018d57620f424044426040516020016101639291906109e2565b6040516020818303038152906040528051906020012060001c6101869190610a3d565b905061012e565b600060028286886040516020016101a693929190610aaa565b6040516020818303038152906040526040516101c29190610b26565b602060405180830381855afa1580156101df573d6000803e3d6000fd5b5050506040513d601f19601f820116820180604052508101906102029190610b52565b90507fd50258d5142a1379afba6c9713eb28b550dfa24f16498bced5cecc635128cd3081836040516102359291906107f2565b60405180910390a16040518060800160405280838152602001868152602001600063ffffffff16815260200182815250600360003373ffffffffffffffffffffffffffffffffffffffff1673ffffffffffffffffffffffffffffffffffffffff1681526020019081526020016000206000820151816000015560208201518160010190805190602001906102ca92919061054b565b5060408201518160020160006101000a81548163ffffffff021916908363ffffffff1602179055506060820151816003015590505080829350935050509250929050565b6000600360003373ffffffffffffffffffffffffffffffffffffffff1673ffffffffffffffffffffffffffffffffffffffff1681526020019081526020016000206000015490506040518060c00160405280600054815260200183815260200184815260200182815260200142815260200142815250600560008381526020019081526020016000206000820151816000015560208201518160010190805190602001906103bd92919061054b565b5060408201518160020155606082015181600301556080820151816004015560a082015181600501559050507fbb37129c395b5eb34abd1c2bb59a4aca7e65803d2bd4c9961b53d1e3835af7866000544260405161041c929190610b7f565b60405180910390a160016000546104339190610bd7565b600081905550505050565b6000600360006002600085815260200190815260200160002060009054906101000a900473ffffffffffffffffffffffffffffffffffffffff1673ffffffffffffffffffffffffffffffffffffffff1673ffffffffffffffffffffffffffffffffffffffff168152602001908152602001600020600301549050919050565b600180546104ca90610c5c565b80601f01602080910402602001604051908101604052809291908181526020018280546104f690610c5c565b80156105435780601f1061051857610100808354040283529160200191610543565b820191906000526020600020905b81548152906001019060200180831161052657829003601f168201915b505050505081565b82805461055790610c5c565b90600052602060002090601f01602090048101928261057957600085556105c0565b82601f1061059257805160ff19168380011785556105c0565b828001600101855582156105c0579182015b828111156105bf5782518255916020019190600101906105a4565b5b5090506105cd91906105d1565b5090565b5b808211156105ea5760008160009055506001016105d2565b5090565b6000604051905090565b600080fd5b600080fd5b600080fd5b600080fd5b6000601f19601f8301169050919050565b7f4e487b7100000000000000000000000000000000000000000000000000000000600052604160045260246000fd5b6106558261060c565b810181811067ffffffffffffffff821117156106745761067361061d565b5b80604052505050565b60006106876105ee565b9050610693828261064c565b919050565b600067ffffffffffffffff8211156106b3576106b261061d565b5b6106bc8261060c565b9050602081019050919050565b82818337600083830152505050565b60006106eb6106e684610698565b61067d565b90508281526020810184848401111561070757610706610607565b5b6107128482856106c9565b509392505050565b600082601f83011261072f5761072e610602565b5b813561073f8482602086016106d8565b91505092915050565b6000806040838503121561075f5761075e6105f8565b5b600083013567ffffffffffffffff81111561077d5761077c6105fd565b5b6107898582860161071a565b925050602083013567ffffffffffffffff8111156107aa576107a96105fd565b5b6107b68582860161071a565b9150509250929050565b6000819050919050565b6107d3816107c0565b82525050565b6000819050919050565b6107ec816107d9565b82525050565b600060408201905061080760008301856107ca565b61081460208301846107e3565b9392505050565b610824816107c0565b811461082f57600080fd5b50565b6000813590506108418161081b565b92915050565b6000806040838503121561085e5761085d6105f8565b5b600061086c85828601610832565b925050602083013567ffffffffffffffff81111561088d5761088c6105fd565b5b6108998582860161071a565b9150509250929050565b6108ac816107d9565b81146108b757600080fd5b50565b6000813590506108c9816108a3565b92915050565b6000602082840312156108e5576108e46105f8565b5b60006108f3848285016108ba565b91505092915050565b600060208201905061091160008301846107ca565b92915050565b600081519050919050565b600082825260208201905092915050565b60005b83811015610951578082015181840152602081019050610936565b83811115610960576000848401525b50505050565b600061097182610917565b61097b8185610922565b935061098b818560208601610933565b6109948161060c565b840191505092915050565b600060208201905081810360008301526109b98184610966565b905092915050565b6000819050919050565b6109dc6109d7826107d9565b6109c1565b82525050565b60006109ee82856109cb565b6020820191506109fe82846109cb565b6020820191508190509392505050565b7f4e487b7100000000000000000000000000000000000000000000000000000000600052601260045260246000fd5b6000610a48826107d9565b9150610a53836107d9565b925082610a6357610a62610a0e565b5b828206905092915050565b600081905092915050565b6000610a8482610917565b610a8e8185610a6e565b9350610a9e818560208601610933565b80840191505092915050565b6000610ab682866109cb565b602082019150610ac68285610a79565b9150610ad28284610a79565b9150819050949350505050565b600081519050919050565b600081905092915050565b6000610b0082610adf565b610b0a8185610aea565b9350610b1a818560208601610933565b80840191505092915050565b6000610b328284610af5565b915081905092915050565b600081519050610b4c8161081b565b92915050565b600060208284031215610b6857610b676105f8565b5b6000610b7684828501610b3d565b91505092915050565b6000604082019050610b9460008301856107e3565b610ba160208301846107e3565b9392505050565b7f4e487b7100000000000000000000000000000000000000000000000000000000600052601160045260246000fd5b6000610be2826107d9565b9150610bed836107d9565b9250827fffffffffffffffffffffffffffffffffffffffffffffffffffffffffffffffff03821115610c2257610c21610ba8565b5b828201905092915050565b7f4e487b7100000000000000000000000000000000000000000000000000000000600052602260045260246000fd5b60006002820490506001821680610c7457607f821691505b60208210811415610c8857610c87610c2d565b5b5091905056fea264697066735822122017309e8be01e0f20eef4cefb5e4211883e54d7cae8fb16a3b5b0c5b472e8503364736f6c634300080a0033",
  "immutableReferences": {},
  "source": "// SPDX-License-Identifier: GPL-3.0\npragma solidity ^0.8.10;\n\n\ncontract Blog {\n    event creatUser(bytes32 hash,uint256 userId);\n    event addBlog_event(uint256 blog_id,uint256 add_time);\n    uint256 blog_id;\n    string public s;\n    struct userStruct{\n        uint256 userId;\n        string userName;\n        uint32 blogSum;\n        bytes32 hash;\n\n    }\n    struct blogStruct{\n        uint256 blog_id;\n        string title;\n        bytes32 hash;\n        uint256 userId;\n        uint256 add_time;\n        uint256 modify_time;\n\n    }\n    mapping(uint256=>address) userIdMap;\n    mapping(address=>userStruct)  userMap;\n    mapping(uint256=>uint256[]) userBlogs;\n    mapping(uint256=>blogStruct) blogMap;\n    constructor() {\n        blog_id=0;\n    }\n    function register(string memory mainMsg,string memory userName) public  payable returns(bytes32,uint256) {\n\n        uint256  userId = uint256(keccak256(abi.encodePacked(block.difficulty, block.timestamp)))%1000000;\n        while(userBlogs[userId].length!=0){\n            userId = uint256(keccak256(abi.encodePacked(block.difficulty,  block.timestamp)))%1000000;\n        }\n        bytes32  hash=sha256(abi.encodePacked(userId,userName,mainMsg));\n        emit creatUser(hash,userId);\n        userMap[msg.sender]=userStruct(userId,userName,0,hash);\n        return (hash,userId);\n    }\n    function vfUser(uint256  userId) public payable returns(bytes32){\n        return userMap[userIdMap[userId]].hash;\n    }\n    function addBlog(bytes32 hash,string memory title)public payable{\n        uint256 userid=userMap[msg.sender].userId;\n        blogMap[userid]=blogStruct(blog_id,title,hash,userid,block.timestamp,block.timestamp);\n        emit addBlog_event(blog_id,block.timestamp);\n        blog_id=blog_id+1;\n\n    }\n\n}\n",
  "sourcePath": "/home/aptx/code/WebstormProjects/untitled7/contracts/Blog.sol",
  "compiler": {
    "name": "solc",
    "version": "0.8.10+commit.fc410830.Emscripten.clang"
  },
  "schemaVersion": "3.4.3",
  "updatedAt": "2021-12-17T06:06:23.964Z",
  "networkType": "ethereum",
  "devdoc": {
    "kind": "dev",
    "methods": {},
    "version": 1
  },
  "userdoc": {
    "kind": "user",
    "methods": {},
    "version": 1
  }
}