{
  "contractName": "Blog",
  "abi": [
    {
      "inputs": [],
      "stateMutability": "nonpayable",
      "type": "constructor"
    },
    {
      "inputs": [
        {
          "internalType": "string",
          "name": "_name",
          "type": "string"
        },
        {
          "internalType": "string",
          "name": "_intr",
          "type": "string"
        }
      ],
      "name": "register",
      "outputs": [
        {
          "internalType": "uint8",
          "name": "",
          "type": "uint8"
        }
      ],
      "stateMutability": "payable",
      "type": "function",
      "payable": true
    },
    {
      "inputs": [],
      "name": "login",
      "outputs": [
        {
          "internalType": "string",
          "name": "",
          "type": "string"
        },
        {
          "internalType": "uint8",
          "name": "",
          "type": "uint8"
        },
        {
          "internalType": "string",
          "name": "",
          "type": "string"
        }
      ],
      "stateMutability": "view",
      "type": "function",
      "constant": true
    },
    {
      "inputs": [
        {
          "internalType": "string",
          "name": "_title",
          "type": "string"
        },
        {
          "internalType": "string",
          "name": "_content",
          "type": "string"
        }
      ],
      "name": "pushBlog",
      "outputs": [],
      "stateMutability": "nonpayable",
      "type": "function"
    },
    {
      "inputs": [
        {
          "internalType": "uint32",
          "name": "_blog_id",
          "type": "uint32"
        },
        {
          "internalType": "string",
          "name": "_title",
          "type": "string"
        },
        {
          "internalType": "string",
          "name": "_content",
          "type": "string"
        }
      ],
      "name": "modifyBlog",
      "outputs": [],
      "stateMutability": "nonpayable",
      "type": "function"
    },
    {
      "inputs": [],
      "name": "getBlog",
      "outputs": [
        {
          "components": [
            {
              "internalType": "uint32",
              "name": "blog_id",
              "type": "uint32"
            },
            {
              "internalType": "string",
              "name": "title",
              "type": "string"
            },
            {
              "internalType": "string",
              "name": "content",
              "type": "string"
            },
            {
              "internalType": "uint256",
              "name": "push_time",
              "type": "uint256"
            },
            {
              "internalType": "uint256",
              "name": "modify_time",
              "type": "uint256"
            }
          ],
          "internalType": "struct Blog.blogStruct[]",
          "name": "",
          "type": "tuple[]"
        }
      ],
      "stateMutability": "view",
      "type": "function",
      "constant": true
    }
  ],
  "bytecode": "0x608060405234801561001057600080fd5b5060008060006101000a81548163ffffffff021916908363ffffffff16021790555060008060046101000a81548160ff021916908360ff1602179055506114698061005c6000396000f3fe60806040526004361061004a5760003560e01c80633ffbd47f1461004f5780635a449b3b1461007f57806381cfda60146100a8578063b34e97e8146100d3578063b7d92b5114610100575b600080fd5b61006960048036038101906100649190610e73565b610129565b6040516100769190610f07565b60405180910390f35b34801561008b57600080fd5b506100a660048036038101906100a19190610e73565b6104cc565b005b3480156100b457600080fd5b506100bd61063d565b6040516100ca9190611121565b60405180910390f35b3480156100df57600080fd5b506100e8610869565b6040516100f79392919061118d565b60405180910390f35b34801561010c57600080fd5b50610127600480360381019061012291906111fe565b610b12565b005b6000600160003373ffffffffffffffffffffffffffffffffffffffff1673ffffffffffffffffffffffffffffffffffffffff16815260200190815260200160002060020160019054906101000a900460ff161561018957600090506104c6565b600060026000600160003373ffffffffffffffffffffffffffffffffffffffff1673ffffffffffffffffffffffffffffffffffffffff16815260200190815260200160002060000160009054906101000a900463ffffffff1663ffffffff1663ffffffff168152602001908152602001600020805490501461020e57600190506104c6565b604051806080016040528060008081819054906101000a900463ffffffff168092919061023a906112b8565b91906101000a81548163ffffffff021916908363ffffffff16021790555063ffffffff16815260200184815260200160086000600481819054906101000a900460ff168092919061028a906112e5565b91906101000a81548160ff021916908360ff1602179055506102ac919061133e565b60ff16815260200160011515815250600160003373ffffffffffffffffffffffffffffffffffffffff1673ffffffffffffffffffffffffffffffffffffffff16815260200190815260200160002060008201518160000160006101000a81548163ffffffff021916908363ffffffff160217905550602082015181600101908051906020019061033d929190610c76565b5060408201518160020160006101000a81548160ff021916908360ff16021790555060608201518160020160016101000a81548160ff02191690831515021790555090505060026000600160008054906101000a900463ffffffff166103a3919061136f565b63ffffffff1663ffffffff1681526020019081526020016000206040518060a00160405280600063ffffffff1681526020016040518060400160405280600481526020017f696e74720000000000000000000000000000000000000000000000000000000081525081526020018481526020014281526020016000815250908060018154018082558091505060019003906000526020600020906005020160009091909190915060008201518160000160006101000a81548163ffffffff021916908363ffffffff160217905550602082015181600101908051906020019061048d929190610c76565b5060408201518160020190805190602001906104aa929190610c76565b5060608201518160030155608082015181600401555050600290505b92915050565b6000600160003373ffffffffffffffffffffffffffffffffffffffff1673ffffffffffffffffffffffffffffffffffffffff16815260200190815260200160002060000160009054906101000a900463ffffffff1690506000600260008363ffffffff1663ffffffff168152602001908152602001600020805490509050600260008363ffffffff1663ffffffff1681526020019081526020016000206040518060a001604052808363ffffffff1681526020018681526020018581526020014281526020016000815250908060018154018082558091505060019003906000526020600020906005020160009091909190915060008201518160000160006101000a81548163ffffffff021916908363ffffffff1602179055506020820151816001019080519060200190610603929190610c76565b506040820151816002019080519060200190610620929190610c76565b506060820151816003015560808201518160040155505050505050565b606060026000600160003373ffffffffffffffffffffffffffffffffffffffff1673ffffffffffffffffffffffffffffffffffffffff16815260200190815260200160002060000160009054906101000a900463ffffffff1663ffffffff1663ffffffff168152602001908152602001600020805480602002602001604051908101604052809291908181526020016000905b8282101561086057838290600052602060002090600502016040518060a00160405290816000820160009054906101000a900463ffffffff1663ffffffff1663ffffffff168152602001600182018054610729906113d2565b80601f0160208091040260200160405190810160405280929190818152602001828054610755906113d2565b80156107a25780601f10610777576101008083540402835291602001916107a2565b820191906000526020600020905b81548152906001019060200180831161078557829003601f168201915b505050505081526020016002820180546107bb906113d2565b80601f01602080910402602001604051908101604052809291908181526020018280546107e7906113d2565b80156108345780601f1061080957610100808354040283529160200191610834565b820191906000526020600020905b81548152906001019060200180831161081757829003601f168201915b5050505050815260200160038201548152602001600482015481525050815260200190600101906106d0565b50505050905090565b606060006060600160003373ffffffffffffffffffffffffffffffffffffffff1673ffffffffffffffffffffffffffffffffffffffff16815260200190815260200160002060020160019054906101000a900460ff166108c857600080fd5b600160003373ffffffffffffffffffffffffffffffffffffffff1673ffffffffffffffffffffffffffffffffffffffff168152602001908152602001600020600101600160003373ffffffffffffffffffffffffffffffffffffffff1673ffffffffffffffffffffffffffffffffffffffff16815260200190815260200160002060020160009054906101000a900460ff1660026000600160003373ffffffffffffffffffffffffffffffffffffffff1673ffffffffffffffffffffffffffffffffffffffff16815260200190815260200160002060000160009054906101000a900463ffffffff1663ffffffff1663ffffffff1681526020019081526020016000206000815481106109de576109dd611404565b5b90600052602060002090600502016002018280546109fb906113d2565b80601f0160208091040260200160405190810160405280929190818152602001828054610a27906113d2565b8015610a745780601f10610a4957610100808354040283529160200191610a74565b820191906000526020600020905b815481529060010190602001808311610a5757829003601f168201915b50505050509250808054610a87906113d2565b80601f0160208091040260200160405190810160405280929190818152602001828054610ab3906113d2565b8015610b005780601f10610ad557610100808354040283529160200191610b00565b820191906000526020600020905b815481529060010190602001808311610ae357829003601f168201915b50505050509050925092509250909192565b6000600160003373ffffffffffffffffffffffffffffffffffffffff1673ffffffffffffffffffffffffffffffffffffffff16815260200190815260200160002060000160009054906101000a900463ffffffff16905081600260008363ffffffff1663ffffffff1681526020019081526020016000208563ffffffff1681548110610ba157610ba0611404565b5b90600052602060002090600502016002019080519060200190610bc5929190610c76565b5082600260008363ffffffff1663ffffffff1681526020019081526020016000208563ffffffff1681548110610bfe57610bfd611404565b5b90600052602060002090600502016001019080519060200190610c22929190610c76565b5042600260008363ffffffff1663ffffffff1681526020019081526020016000208563ffffffff1681548110610c5b57610c5a611404565b5b90600052602060002090600502016004018190555050505050565b828054610c82906113d2565b90600052602060002090601f016020900481019282610ca45760008555610ceb565b82601f10610cbd57805160ff1916838001178555610ceb565b82800160010185558215610ceb579182015b82811115610cea578251825591602001919060010190610ccf565b5b509050610cf89190610cfc565b5090565b5b80821115610d15576000816000905550600101610cfd565b5090565b6000604051905090565b600080fd5b600080fd5b600080fd5b600080fd5b6000601f19601f8301169050919050565b7f4e487b7100000000000000000000000000000000000000000000000000000000600052604160045260246000fd5b610d8082610d37565b810181811067ffffffffffffffff82111715610d9f57610d9e610d48565b5b80604052505050565b6000610db2610d19565b9050610dbe8282610d77565b919050565b600067ffffffffffffffff821115610dde57610ddd610d48565b5b610de782610d37565b9050602081019050919050565b82818337600083830152505050565b6000610e16610e1184610dc3565b610da8565b905082815260208101848484011115610e3257610e31610d32565b5b610e3d848285610df4565b509392505050565b600082601f830112610e5a57610e59610d2d565b5b8135610e6a848260208601610e03565b91505092915050565b60008060408385031215610e8a57610e89610d23565b5b600083013567ffffffffffffffff811115610ea857610ea7610d28565b5b610eb485828601610e45565b925050602083013567ffffffffffffffff811115610ed557610ed4610d28565b5b610ee185828601610e45565b9150509250929050565b600060ff82169050919050565b610f0181610eeb565b82525050565b6000602082019050610f1c6000830184610ef8565b92915050565b600081519050919050565b600082825260208201905092915050565b6000819050602082019050919050565b600063ffffffff82169050919050565b610f6781610f4e565b82525050565b600081519050919050565b600082825260208201905092915050565b60005b83811015610fa7578082015181840152602081019050610f8c565b83811115610fb6576000848401525b50505050565b6000610fc782610f6d565b610fd18185610f78565b9350610fe1818560208601610f89565b610fea81610d37565b840191505092915050565b6000819050919050565b61100881610ff5565b82525050565b600060a0830160008301516110266000860182610f5e565b506020830151848203602086015261103e8282610fbc565b915050604083015184820360408601526110588282610fbc565b915050606083015161106d6060860182610fff565b5060808301516110806080860182610fff565b508091505092915050565b6000611097838361100e565b905092915050565b6000602082019050919050565b60006110b782610f22565b6110c18185610f2d565b9350836020820285016110d385610f3e565b8060005b8581101561110f57848403895281516110f0858261108b565b94506110fb8361109f565b925060208a019950506001810190506110d7565b50829750879550505050505092915050565b6000602082019050818103600083015261113b81846110ac565b905092915050565b600082825260208201905092915050565b600061115f82610f6d565b6111698185611143565b9350611179818560208601610f89565b61118281610d37565b840191505092915050565b600060608201905081810360008301526111a78186611154565b90506111b66020830185610ef8565b81810360408301526111c88184611154565b9050949350505050565b6111db81610f4e565b81146111e657600080fd5b50565b6000813590506111f8816111d2565b92915050565b60008060006060848603121561121757611216610d23565b5b6000611225868287016111e9565b935050602084013567ffffffffffffffff81111561124657611245610d28565b5b61125286828701610e45565b925050604084013567ffffffffffffffff81111561127357611272610d28565b5b61127f86828701610e45565b9150509250925092565b7f4e487b7100000000000000000000000000000000000000000000000000000000600052601160045260246000fd5b60006112c382610f4e565b915063ffffffff8214156112da576112d9611289565b5b600182019050919050565b60006112f082610eeb565b915060ff82141561130457611303611289565b5b600182019050919050565b7f4e487b7100000000000000000000000000000000000000000000000000000000600052601260045260246000fd5b600061134982610eeb565b915061135483610eeb565b9250826113645761136361130f565b5b828206905092915050565b600061137a82610f4e565b915061138583610f4e565b92508282101561139857611397611289565b5b828203905092915050565b7f4e487b7100000000000000000000000000000000000000000000000000000000600052602260045260246000fd5b600060028204905060018216806113ea57607f821691505b602082108114156113fe576113fd6113a3565b5b50919050565b7f4e487b7100000000000000000000000000000000000000000000000000000000600052603260045260246000fdfea264697066735822122099aebec40bdcc799f5b47f448fefeea4de8c2448c2953f0818395cbcce25a62c64736f6c634300080a0033",
  "immutableReferences": {},
  "source": "// SPDX-License-Identifier: GPL-3.0\npragma solidity ^0.8.10;\n\ncontract Blog {\n    struct User{\n        uint32 user_id;\n        string userName;\n        uint8 imgId;\n        bool used;\n   }\n    struct blogStruct{\n        uint32 blog_id;\n        string title;\n        string content;\n        uint256 push_time;\n        uint256 modify_time;\n       \n   }\n    uint32 user_id;\n    uint8 imgId;\n    mapping(address=>User)  userMap;\n    mapping(uint32=>blogStruct[]) blogMap;\n    \n    constructor() {\n        user_id=0;\n\n        imgId=0;\n    }\n    function register(string memory _name,string memory _intr) public  payable returns(uint8){\n        if(userMap[msg.sender].used){\n            return 0;\n        }\n        if(blogMap[userMap[msg.sender].user_id].length!=0){\n            return 1;\n        }\n        userMap[msg.sender]=User(user_id++,_name,(imgId++)%8,true);\n        blogMap[user_id-1].push(blogStruct(0,\"intr\",_intr,block.timestamp,0));\n        return 2;\n    }\n    function login()public  view returns(string memory,uint8 ,string memory){\n        require(userMap[msg.sender].used);\n        return (userMap[msg.sender].userName , userMap[msg.sender].imgId , blogMap[userMap[msg.sender].user_id][0].content);\n\n    }\n    function pushBlog(string memory _title,string memory _content ) public {\n        uint32 userId=userMap[msg.sender].user_id;\n        uint32 blog_id=uint32(blogMap[userId].length);\n        blogMap[userId].push(blogStruct(blog_id,_title,_content,block.timestamp,0));\n    }\n    function modifyBlog(uint32 _blog_id ,string memory _title,string memory _content ) public {\n        uint32 userId=userMap[msg.sender].user_id;\n        blogMap[userId][_blog_id].content=_content;\n        blogMap[userId][_blog_id].title=_title;\n        blogMap[userId][_blog_id].modify_time=block.timestamp;\n    }\n    function getBlog()public view returns(blogStruct[] memory){\n        return blogMap[userMap[msg.sender].user_id];\n    }\n\n}",
  "sourcePath": "/home/aptx/code/WebstormProjects/untitled7/contracts/Blog.sol",
  "compiler": {
    "name": "solc",
    "version": "0.8.10+commit.fc410830.Emscripten.clang"
  },
  "schemaVersion": "3.4.3",
  "updatedAt": "2021-11-28T14:21:59.522Z",
  "networkType": "ethereum",
  "devdoc": {
    "kind": "dev",
    "methods": {},
    "version": 1
  },
  "userdoc": {
    "kind": "user",
    "methods": {},
    "version": 1
  }
}